:10000000A8230020ED080000E9080000E90800002E
:1000100000000000000000000000000000000000E0
:10002000000000000000000000000000E9080000DF
:100030000000000000000000E9080000E9080000DE
:10004000E9080000E9080000E9080000E9080000EC
:10005000E9080000E9080000E9080000E9080000DC
:10006000E9080000E9080000E9080000E9080000CC
:10007000E9080000E9080000E9080000E9080000BC
:10008000E9080000E9080000E9080000E9080000AC
:10009000E9080000E9080000E9080000E90800009C
:1000A000E9080000E9080000E9080000E90800008C
:1000B00010B5064C2378002B07D1054B002B02D03E
:1000C000044800E000BF0123237010BD540000204D
:1000D00000000000FC18000008B5084B002B03D0FE
:1000E0000748084900E000BF07480368002B03D019
:1000F000064B002B00D0984708BDC046000000000A
:10010000FC18000058000020FC180000000000004F
:1001100030B52D4B1E215A680F208A4302210A4315
:100120002A495A600A6A2A4B13400B62294B5A68C3
:1001300082435A605A78274852B2002AFADB446850
:1001400083225202224342605A7852B2002AFBDBD9
:10015000214A1068800E3F2800D11F201F4A204CE2
:1001600012689205920DA24200D11E4A80021043ED
:100170008A8C8024A2438A84CC68144AE506FBD585
:100180001949D16291214900906291845A883F2196
:100190008A435A8059888022D2010A435A805A6879
:1001A0000F218A4301210A435A605A78094952B201
:1001B000002AFADB48680D4A02434A605A7852B274
:1001C000002AFBDB30BDC046004000410008004073
:1001D000FFFCFFFF000C00402460800028608000CE
:1001E000FF030000FF01000080BB000000070100CA
:1001F00010B5164B1A780132D2B21A70144B002A7D
:100200001AD1144900240C5760431C88001980B28D
:1002100004B2FF2C01DC188002E0FF201880087077
:100220000024185F002803DA0020188001200870DD
:10023000802009498002886100215B5E9A4203D1D7
:100240008022054B92025A6110BDC046700000200A
:1002500072000020000000200044004110B5314B26
:100260008022D2059A605A612F4A181C1178012207
:1002700011402E4B002200290AD11C682C4A9442BE
:1002800001D1196016E01A602A4A013A002AFCD10D
:100290001A60294B1A68531C0CD08023DB0583613C
:1002A00080239B011B6883F30888244B80218901EC
:1002B00099601047FFF72CFF214B01221A70BFF302
:1002C0005F8F62B600F044FB01F092F81D4B0221F3
:1002D0001A78041C8A431A7080221B4B92029A607F
:1002E0000120FFF785FFA368201C9847174B0028C3
:1002F00001D001221A701A78002A05D0002000F0DF
:1003000027F800F0BFFAFCE71B78002BE8D100F0DB
:100310009BFB0028E4D0012000F01AF800F0B2FAAC
:10032000FCE7C0468044004138040040FC7F0020C8
:100330003581730748E801000420000000ED00E06B
:10034000500000205144004100440041740000204E
:10035000012805D1054B064A1A60064B187004E0C7
:10036000002802D1044A014B1A607047880100201E
:10037000381600007D0000208416000030B51A4BAE
:1003800085B01B78002B29D0042901D1026804E034
:10039000022901D1028800E00278490004A843182C
:1003A0000B3B5C1AA3420BD00F201040092802D847
:1003B0003025284300E0373018701209013BF1E77F
:1003C00001A830230370782343700A2243189A70DF
:1003D0000D22DA70054B04311B6801E0034B1B68EA
:1003E000DB68984705B030BD7C0000208801002004
:1003F00072B6BFF35F8F064B00221A70EFF30883CB
:10040000044A1360036883F30888436818477047F9
:10041000500000208C01002007B507230F22024066
:10042000111C00093031092A00DD07316A46995450
:10043000013BF3D2034B68461B680821DB689847F1
:1004400007BDC04688010020F0B5032087B0FFF744
:10045000CFFECD4CCD4D236840211B69281C984709
:10046000CB49CC4ACC4B0860002015601860CA4EBE
:10047000C749326809688A4200D3F6E1C54F386837
:100480000278FF2A00D1E7E1232A00D0BEE1C34D64
:100490002B78002B04D02368C148DB6802219847E1
:1004A000C04B1B78532B3DD1B94932680868904244
:1004B0001ED9B84B01321B683260191CB54B013193
:1004C0001960B94B821A1B689A4200D91A1CB74BA3
:1004D000B74D18682A6001F08DF8AF4E2B6836686A
:1004E00038689A19AC4E3260C2183A60B14A13703B
:1004F000A949A84F0968A84E0B1C3F68013B33600F
:100500003B1CA44E013B3360A74AAA4B11681B78E1
:100510008B4205D22268A548C91A006892699047A3
:10052000C04620E1522B06D1A04A236810689E4A9B
:100530005B69116816E14F2B05D19C4B9A4A1B68E9
:1005400012681A700FE1482B05D1984B964A1B6828
:1005500012681A8007E1572B05D1944B924A1B6809
:1005600012681A60FFE06F2B03D1904B01211868CD
:1005700007E0682B08D18D4B8B481B6802211B8834
:100580000360FFF7FBFEEEE0772B06D1874B864832
:100590001B6804211B680360F3E7472B17D1824BCC
:1005A0001868FFF725FF844B1B6883F30888834B8B
:1005B00001221A70BFF35F8F62B6814B1B78002B4C
:1005C00000D1D0E0236806201B689847CBE0542B6D
:1005D00002D101232B7056E04E2B0AD12B78002B31
:1005E00004D123686E48DB680221984700232B70F2
:1005F000B9E0562B4CD123680121DB68714898473C
:1006000023680321DB6870489847704D2368281CD5
:10061000DB680121984723680D21DB686C48984707
:100620002368281CDB68012198475A4E5A4D6948B7
:10063000002330602B60321C291C13685F1C17607C
:100640001F78002F03D00B6801330B60F5E7236898
:100650002968DB68984723685C48DB680121984774
:100660005D482F6030604B4A1368591C11601B783D
:10067000002B04D0484B1A6801321A60F3E7236854
:100680002968DB68984723684548DB68022169E0F0
:10069000454A582B15D11368504A1068504A1568BE
:1006A000AD00834209D24F4A5908D1614E491180A9
:1006B000117DCF07FCD55B19F3E723684B48DB6856
:1006C0004FE0592B32D11268384B4949002A02D1E8
:1006D0001B680B6026E0086842491D684B6880264D
:1006E000B34392084B60002A1CD0424B0B800B7D19
:1006F000DE07FCD500233A4E3668B608B34202D373
:100700003D4E0E8006E09342FAD09E008759013399
:10071000AF51F0E70E7DF707FCD59E00AD198019AB
:10072000D21AE0E723683548DB681AE05A2B1AD161
:100730001E4B17681D680026EF19BD4206D02878A9
:10074000311C00F0A3F90135061CF6E723680121EE
:10075000DB682B489847301CFFF75EFE236829486A
:10076000DB68032198470F4B7A221A700E4B002248
:100770001A600A4B1B7893426ED023680121DB6814
:100780002148984768E0C0468801002044010020C5
:10079000280100202C0100203C0100207C000020CA
:1007A0007816000030010020900100208401002014
:1007B00094010020240100208C0100205000002022
:1007C0007D000020541600007D1600005616000023
:1007D000A016000058160000641600003401002026
:1007E000400100200040004102A5FFFF6D160000FF
:1007F0007800002044A5FFFF04A5FFFF711600004C
:1008000075160000771600007B160000111C3039A9
:10081000C8B2174B092804D818680201114319609F
:100820001AE0111C4139052903D81E68373A3101F5
:1008300006E0111C6139052904D81F68573A3901AF
:100840000A4308E02C2A03D10A4A1868106001E024
:1008500009490A7000221A60084B1A6801321A60AE
:10086000074B1A6801321A6001E607B0F0BDC046B6
:100870009001002084010020300100203C01002074
:100880002C01002030B5114A89B06B4631CA31C302
:1008900031CA31C311CA11C30D4A694693685B035B
:1008A0005B0F9B005B580B490B6092680A4992B240
:1008B00053430A60094900220B60094B1A60094B37
:1008C0007A221A70FFF7C0FDFCE7C0461816000038
:1008D0000040004140010020380100203401002088
:1008E0008401002030010020FEE700001148124979
:1008F00010B5884201D0002301E0104B07E0104CF6
:10090000CA18A242F9D2C45804331460F7E70D4A5A
:10091000191D043B934203D200221A600B1CF6E718
:10092000094A0A4BFF218A439A6000F03DFEFFF717
:1009300095FCFEE7FC180000000000205800002095
:1009400054000020A40300200000000000ED00E09F
:1009500038B5234A0124131C4A331978153B214327
:10096000597518780F218843187018780225284384
:1009700018704B3210781B4D204310701A78281CC9
:10098000114019701A7820210A431A7000F0A8FD4E
:10099000154B811C1A6A8C4014431C62134B3F2276
:1009A000588812311140904308435880598880225A
:1009B000D2010A435A80C422281C0D49920300F038
:1009C000A7FD0C4B00241C700B4B1C700B4B1C70B8
:1009D0000B4B1C700B4B1C700B4B1C7038BDC04676
:1009E000004400410008004200040040000C0040A8
:1009F00004C50000980100201F020020990100207A
:100A00009C010020200200201D02002008B5C1B278
:100A1000024800F0ABFD012008BDC04600080042BE
:100A2000024B187E4007C00F7047C04600080042C6
:100A300008B5FFF7F5FF0028FBD0024800F09CFD49
:100A400008BDC0460008004208B5FFF7E9FF0023D3
:100A5000984205D0FFF7ECFF031C233B5A42534159
:100A6000181C08BD70B5041C0D1C4618B44204D0F7
:100A70002078FFF7CBFF0134F8E7281C70BD10B5D4
:100A8000041CFFF7D5FF2070012010BD0B0A584051
:100A9000034B4000C05A0902484080B27047C0462C
:100AA000AE160000F7B50024051C0F1C261CBC4226
:100AB00020D0FFF7BDFF114BC0B21B780190002B77
:100AC0001AD1311CFFF7E2FF0D4B061C1A88002AD1
:100AD00004D10C4A11782A1C002907D001996A1CFC
:100AE0002970802F02D11988013919800134A4B2EC
:100AF000151CDCE7301C00E00120FEBD1D020020BB
:100B00009A0100201E020020F0B585B003AC051C40
:100B10000191201C0221FFF7C5FF281C8021FFF74F
:100B2000C1FF134D061C2B78002B18D1FFF780FF57
:100B30000702FFF77DFFBFB22B783F18BFB2012B32
:100B40000DD0B74208D12378019A934204D1DB43F8
:100B50006278DBB29A4204D01820FFF757FF0020DA
:100B600003E00620FFF752FF012005B0F0BDC046AC
:100B70001D020020F0B53E4E85B0002203900C1CF3
:100B800032703C4B914201D1012201E03A490C8084
:100B90001A707F231C4201D080349C43FFF748FF2A
:100BA0003378C0B2002B07D000253570FFF740FF27
:100BB0003378C0B2AB4236D1432803D0712853D02A
:100BC0001528EBD1012300930120FFF71FFF0098A8
:100BD000FFF71CFF00998025C843C0B2FFF716FF3E
:100BE000039B00270293244A1388002B1DD121491F
:100BF00001930978002918D10198FFF707FF391CE4
:100C00000198FFF743FF013D071C002DEBD1000ABF
:100C1000C0B2FFF7FBFEF8B2FFF7F8FEFFF708FFE0
:100C20003378002B0AD035701FE00299013B097818
:100C30001380029B019101330293DDE7C0B20628C5
:100C400007D1009B03990133DBB280310093803CD4
:100C50000391002CB8D10420FFF7D8FEFFF7E8FE7F
:100C6000044B01251C7000E00025281C05B0F0BDD8
:100C70001D0200201E0200209A010020F8B5234D1D
:100C80000023071C2B70994201D1012301E0204A67
:100C90001180204A642413704320FFF7B7FE1E4ED4
:100CA000FFF7BEFE002803D1002E03D0013EF7E778
:100CB000002E03D1013C002CEED125E00126FFF7E8
:100CC000B7FE2C78002C01D000240FE0C0B2012820
:100CD00005D0042814D10620FFF798FE10E0381C38
:100CE000311CFFF711FF2B78002B01D02C700BE08B
:100CF000012803D10136F6B28037E0E70028DED1C3
:100D0000044A002313700124201CF8BD1D0200209A
:100D10009A0100201E02002000350C00F8B51E4E7E
:100D2000151C33780468002B12D11C4B1C4A1A6422
:100D30005A6C920B92035A64586C1A4A02405A64D5
:100D4000A2235B00E25C40200243E25401233370A3
:100D50004827FF37E25D012313401AD00F4B5A6C2E
:100D60009204920CAA4202D25D6CAD04AD0C081C38
:100D70002A1C0B4900F03EFCE25D03231A400121CE
:100D80000A43E15D99430B1C1343E3550023337081
:100D900000E01D1C281CF8BD980000209C000020CD
:100DA000E4020020FF3F00F0F7B5141C0068234A5E
:100DB0005E011D1C019093195869271C4000400FCB
:100DC00003301033C74006D00F1C8022596812062A
:100DD0000A435A6009E02F1C7B1E9F41184BBF013C
:100DE000FF18381C221C00F005FC144AA1049619B7
:100DF00037617269890C920B92030A4372617169BF
:100E0000104A08350A407261019F6B01FB18D979BD
:100E10000322114002200143D8799043021C0A4367
:100E2000DA715979802252420A435A71019F6B014B
:100E3000FB18DB799A07F9D5201CFEBD9C00002029
:100E400024030020FF3F00F038B5384B2021DA6939
:100E50000F200A43DA61364B0122197811431970C9
:100E6000344B1978814319701C7806210C431C708F
:100E7000314C2578154325701C782040187018785F
:100E80006024204318702D4B3F245888A043014311
:100E9000598058888221C90101435980284B19780B
:100EA0000A431A709A78D107FCD426480268510B7D
:100EB0001F221140914200D1052111408C011D8D4E
:100EC00021492940214319850468A10C0A401F2AA1
:100ED00000D11D221C8D1F210A408C4322431A85FC
:100EE00002680721D20D0A408A4200D103220A403B
:100EF000188D1103154A02400A431A8519787F227A
:100F00000A401A701A78042111480A431A7058626C
:100F10001A890C218A431A811A8901218A431A816C
:100F20000021802200F06FFB38BDC0460004004065
:100F3000584400413C44004159440041000C0040E9
:100F400000500041246080003FF8FFFFFF8FFFFF4B
:100F50009C000020002303714371064B01608360F5
:100F6000054B0222C360054B03610B7813430B70E2
:100F70007047C046B90F0000A90D00001D0D00000C
:100F80000C4BFF305A690221920B92035A61027A8C
:100F900003231A400A43017A99430B1C134303723B
:100FA000827980235B4213438371037A9A07FCD5CD
:100FB0007047C0469C000020F7B50468051CA38B51
:100FC00008200340201CFF30002B29D0A38B0821D0
:100FD0000B43A38311228023A372427040228271AB
:100FE0004371AD4BAD4C5E68C021264089050E4370
:100FF0005E605E69344021435961A9491960A9497D
:1010000019615C68A84921408024A40221435960E9
:101010005968890B89035960002342712B71E1E102
:10102000017A1022114200D1DCE1017A9C4E0A4380
:1010300002729E4F32789E493A707278984F0A70C9
:10104000BA789C4E8C463280F978328809020A437D
:1010500032803A7998490A800A887979964F09024C
:101060000A433A808E4FBA79944F3A8039888C4A35
:101070000191D179019A09020A433A8040216246DE
:1010800041711178894A0902127811438C4A9446B9
:10109000894A614500D19AE11CDC80277F00B94272
:1010A00000D1F1E009DC812900D198E0822900D14A
:1010B0009AE0802900D08EE191E081235B00994283
:1010C00000D111E100DA82E1C0239B00994200D1F6
:1010D000DAE080E188200001814200D17BE00CDC75
:1010E000A023DB0099426CD0D023DB0099424BD087
:1010F000744B994200D06EE199E0734B994200D154
:1011000065E135DC90231B01994200D063E133880F
:10111000201C2B71FFF734FFA02303225B00E25455
:101120005D4B5E4A586CC0211040890508435864E5
:101130004620FF3040262654594830264030186457
:10114000902040002654586B4027104001439220C5
:1011500059634000802121545C481863B02040004E
:101160002754586F02405A67B2235B00E15439E1BB
:10117000574B994200D11EE1564B994200D02AE1CB
:101180004C4F3B886B7122E1328880235B009A428E
:1011900008D13B881222934201D83A8892B2281C87
:1011A0004D4910E1328880239B009A4200D012E121
:1011B0003B884322934201D83A8892B2281C47497F
:1011C00001E1201CFFF7DCFE328880235B421343E1
:1011D000DBB2A37206E1291D281C0122F4E040497C
:1011E000281C0B800222EFE03D490B80168850231B
:1011F0001E403C4B1E7017880F263E4016801688F6
:10120000032E41D81B78002B06D0138808335B01CE
:10121000E418A3799B0605E0138808335B01E41802
:10122000A379DB06DB0F0B80281C0222CBE01188A0
:101230007F2399432B4BC9B2197010880F210140AD
:1012400011803188002900D0C5E01188002900D123
:10125000C1E01188032900D9BDE01B78002B08D01C
:101260001388302108335B01E3185A798A4320211F
:1012700007E01388302108335B01E3185A798A4369
:1012800010210A435A71A2E083793022934320222D
:1012900013438371A6E0C0469C000020FFFFFF8F30
:1012A000A402002024030020FF3F00F0990000204A
:1012B0009A0000201C0100207E00002080000020F9
:1012C000010300000203000021200000640300204D
:1012D000A121000021220000B0180000040000201D
:1012E0001E0100202001002011887F2399433E4BDE
:1012F000C9B2197010880F2101401180318800296E
:1013000069D11188002966D01188032963D81B7818
:10131000002B24D0138808335B01E318997902234A
:10132000880654D51188302608314901611808799A
:10133000B043202630430871118803200831490149
:101340006118C97949090140194240D011886026C5
:10135000083149016118C879B043402623E0138859
:1013600008335B01E31899790123CE062FD5118844
:1013700030260831490161180879B04310263043FE
:10138000087111880320083149016118C979490998
:10139000014019421BD011886026083149016118AB
:1013A000C879B04320263043C871128808325201F0
:1013B000A21813710BE03B880822934201D83A88A7
:1013C00092B20A49281C0023FFF7EEFC0AE0201C19
:1013D000FFF7D6FD06E0FF34A379302293432022A5
:1013E0001343A3712879FEBD20010020480000208E
:1013F00010B5054B054C2360FFF726FD201C216826
:10140000FFF7A8FD201C10BD005000418400002003
:1014100007B50122019001A90248131CFFF7C4FC83
:1014200001200EBD8400002013B56C460734211C3A
:1014300001220248FFF772FC207816BD84000020CC
:1014400010B5074C201CFFF7B7FD031C002083429A
:1014500005D022684823FF33D05C0123184010BD1B
:101460008400002010B5031C0C1C221C191C03480E
:101470000123FFF799FC201C10BDC046840000200A
:1014800070B5084C061C201C0D1CFFF795FD0023B1
:10149000984205D0201C311C2A1CFFF73FFC031C7E
:1014A000181C70BD84000020F8B50C4C051C201CD5
:1014B0000E1CFFF781FD0023271C341C98420AD024
:1014C000002C07D0291C221C381CFFF727FC241AEB
:1014D0002D18F5E7331C181CF8BDC0468400002009
:1014E00070B50A4986B06B4670C970C36A4670C948
:1014F00070C3002399005158884204D00133062B51
:10150000F8D1002000E0181C06B070BDC41800001F
:1015100010B5C3699C07FCD403680224A34303608D
:10152000C46901231C42FBD10468234303600368A0
:10153000DC07FCD4C46901231C42FBD1C469DC4034
:101540001C42F7D1084B1A430260C3695A07FCD406
:10155000C0239B0243608181C3699C07FCD403685C
:1015600002221343036010BD04000040037EDA072B
:10157000FCD5018570470000027E01235107FBD591
:10158000428B1A4207D1428BDA401A4203D1428B76
:1015900092081A4202D0034B01221A70008DC0B289
:1015A0007047C0462101002070B50E4B0E4D00243F
:1015B000ED1AAD101E1CAC4204D0A300F35898479E
:1015C0000134F8E700F08AF9084B094D0024ED1AC0
:1015D000AD101E1CAC4204D0A300F3589847013450
:1015E000F8E770BDE8180000E8180000E8180000EF
:1015F000EC18000010B50023934203D0CC5CC45417
:101600000133F9E710BD031C8218934202D0197010
:101610000133FAE7704700000800000010000000E6
:1016200020000000400000008000000000010000D9
:1016300000020000000400000D0A0000310A000052
:10164000210A0000650A00007F0A0000750B0000F7
:101650007D0C0000760020004F637420333120326F
:101660003031350030303A34373A343800580A0DCA
:1016700000590A0D005A00230A0D003E00312E3198
:1016800000000000111400002914000041140000A3
:10169000651400008114000065140000A914000006
:1016A0005B41726475696E6F3A58595A5D0000006B
:1016B0002110422063308440A550C660E770088145
:1016C00029914AA16BB18CC1ADD1CEE1EFF13112BC
:1016D000100273325222B5529442F772D662399395
:1016E00018837BB35AA3BDD39CC3FFF3DEE362240C
:1016F000433420040114E664C774A44485546AA5E5
:101700004BB528850995EEE5CFF5ACC58DD553369B
:10171000722611163006D776F6669556B4465BB734
:101720007AA719973887DFF7FEE79DD7BCC7C4486B
:10173000E5588668A7784008611802282338CCC984
:10174000EDD98EE9AFF9488969990AA92BB9F55AFB
:10175000D44AB77A966A711A500A333A122AFDDBD4
:10176000DCCBBFFB9EEB799B588B3BBB1AABA66CCB
:10177000877CE44CC55C222C033C600C411CAEED24
:101780008FFDECCDCDDD2AAD0BBD688D499D977EDB
:10179000B66ED55EF44E133E322E511E700E9FFF74
:1017A000BEEFDDDFFCCF1BBF3AAF599F788F88912A
:1017B000A981CAB1EBA10CD12DC14EF16FE180100E
:1017C000A100C230E3200450254046706760B98311
:1017D0009893FBA3DAB33DC31CD37FE35EF3B1025E
:1017E0009012F322D2323542145277625672EAB521
:1017F000CBA5A89589856EF54FE52CD50DC5E234AE
:10180000C324A01481046674476424540544DBA7F0
:10181000FAB79987B8975FE77EF71DC73CD7D326FD
:10182000F2369106B01657667676154634564CD980
:101830006DC90EF92FE9C899E9898AB9ABA944584D
:10184000654806782768C018E1088238A3287DCB50
:101850005CDB3FEB1EFBF98BD89BBBAB9ABB754A9D
:10186000545A376A167AF10AD01AB32A923A2EFDE0
:101870000FED6CDD4DCDAABD8BADE89DC98D267CED
:10188000076C645C454CA23C832CE01CC10C1FEF30
:101890003EFF5DCF7CDF9BAFBABFD98FF89F176E3D
:1018A000367E554E745E932EB23ED10EF01E000071
:1018B00012011001020000409A230B0010010000E9
:1018C0000001000000080042000C0042001000422D
:1018D0000014004200180042001C0042F8B5C04647
:1018E000F8BC08BC9E467047D9000000F8B5C04659
:1018F000F8BC08BC9E467047B10000000100000023
:1019000009024300020100C00009040000010202B4
:101910000000052400100104240200052406000133
:101920000524010001070583030800FF09040100E5
:10193000020A0000000705810240000007050202BC
:101940004000000000C2010000000800010000008B
:10195000FFFFFFFFFFFFFFFFFFFFFFFFFFFFFFFF97
:10196000FFFFFFFFFFFFFFFFFFFFFFFFFFFFFFFF87
:10197000FFFFFFFFFFFFFFFFFFFFFFFFFFFFFFFF77
:10198000FFFFFFFFFFFFFFFFFFFFFFFFFFFFFFFF67
:10199000FFFFFFFFFFFFFFFFFFFFFFFFFFFFFFFF57
:1019A000FFFFFFFFFFFFFFFFFFFFFFFFFFFFFFFF47
:1019B000FFFFFFFFFFFFFFFFFFFFFFFFFFFFFFFF37
:1019C000FFFFFFFFFFFFFFFFFFFFFFFFFFFFFFFF27
:1019D000FFFFFFFFFFFFFFFFFFFFFFFFFFFFFFFF17
:1019E000FFFFFFFFFFFFFFFFFFFFFFFFFFFFFFFF07
:1019F000FFFFFFFFFFFFFFFFFFFFFFFFFFFFFFFFF7
:00000001FF
